{
  "_format": "hh-sol-artifact-1",
  "contractName": "Domains",
  "sourceName": "contracts/Domains.sol",
  "abi": [
    {
      "inputs": [
        {
          "internalType": "string",
          "name": "_tld",
          "type": "string"
        }
      ],
      "stateMutability": "payable",
      "type": "constructor"
    },
    {
      "inputs": [],
      "name": "AlreadyRegistered",
      "type": "error"
    },
    {
      "inputs": [],
      "name": "InsufficientFunds",
      "type": "error"
    },
    {
      "inputs": [
        {
          "internalType": "string",
          "name": "name",
          "type": "string"
        }
      ],
      "name": "InvalidName",
      "type": "error"
    },
    {
      "inputs": [],
      "name": "Unauthorized",
      "type": "error"
    },
    {
      "anonymous": false,
      "inputs": [
        {
          "indexed": true,
          "internalType": "address",
          "name": "owner",
          "type": "address"
        },
        {
          "indexed": true,
          "internalType": "address",
          "name": "approved",
          "type": "address"
        },
        {
          "indexed": true,
          "internalType": "uint256",
          "name": "tokenId",
          "type": "uint256"
        }
      ],
      "name": "Approval",
      "type": "event"
    },
    {
      "anonymous": false,
      "inputs": [
        {
          "indexed": true,
          "internalType": "address",
          "name": "owner",
          "type": "address"
        },
        {
          "indexed": true,
          "internalType": "address",
          "name": "operator",
          "type": "address"
        },
        {
          "indexed": false,
          "internalType": "bool",
          "name": "approved",
          "type": "bool"
        }
      ],
      "name": "ApprovalForAll",
      "type": "event"
    },
    {
      "anonymous": false,
      "inputs": [
        {
          "indexed": true,
          "internalType": "address",
          "name": "from",
          "type": "address"
        },
        {
          "indexed": true,
          "internalType": "address",
          "name": "to",
          "type": "address"
        },
        {
          "indexed": true,
          "internalType": "uint256",
          "name": "tokenId",
          "type": "uint256"
        }
      ],
      "name": "Transfer",
      "type": "event"
    },
    {
      "inputs": [
        {
          "internalType": "address",
          "name": "to",
          "type": "address"
        },
        {
          "internalType": "uint256",
          "name": "tokenId",
          "type": "uint256"
        }
      ],
      "name": "approve",
      "outputs": [],
      "stateMutability": "nonpayable",
      "type": "function"
    },
    {
      "inputs": [
        {
          "internalType": "address",
          "name": "owner",
          "type": "address"
        }
      ],
      "name": "balanceOf",
      "outputs": [
        {
          "internalType": "uint256",
          "name": "",
          "type": "uint256"
        }
      ],
      "stateMutability": "view",
      "type": "function"
    },
    {
      "inputs": [
        {
          "internalType": "string",
          "name": "",
          "type": "string"
        }
      ],
      "name": "domains",
      "outputs": [
        {
          "internalType": "address",
          "name": "",
          "type": "address"
        }
      ],
      "stateMutability": "view",
      "type": "function"
    },
    {
      "inputs": [
        {
          "internalType": "string",
          "name": "name",
          "type": "string"
        }
      ],
      "name": "getAddress",
      "outputs": [
        {
          "internalType": "address",
          "name": "",
          "type": "address"
        }
      ],
      "stateMutability": "view",
      "type": "function"
    },
    {
      "inputs": [],
      "name": "getAllNames",
      "outputs": [
        {
          "internalType": "string[]",
          "name": "",
          "type": "string[]"
        }
      ],
      "stateMutability": "view",
      "type": "function"
    },
    {
      "inputs": [
        {
          "internalType": "uint256",
          "name": "tokenId",
          "type": "uint256"
        }
      ],
      "name": "getApproved",
      "outputs": [
        {
          "internalType": "address",
          "name": "",
          "type": "address"
        }
      ],
      "stateMutability": "view",
      "type": "function"
    },
    {
      "inputs": [
        {
          "internalType": "string",
          "name": "name",
          "type": "string"
        }
      ],
      "name": "getImage",
      "outputs": [
        {
          "internalType": "string",
          "name": "",
          "type": "string"
        }
      ],
      "stateMutability": "view",
      "type": "function"
    },
    {
      "inputs": [
        {
          "internalType": "string",
          "name": "",
          "type": "string"
        }
      ],
      "name": "images",
      "outputs": [
        {
          "internalType": "string",
          "name": "",
          "type": "string"
        }
      ],
      "stateMutability": "view",
      "type": "function"
    },
    {
      "inputs": [
        {
          "internalType": "address",
          "name": "owner",
          "type": "address"
        },
        {
          "internalType": "address",
          "name": "operator",
          "type": "address"
        }
      ],
      "name": "isApprovedForAll",
      "outputs": [
        {
          "internalType": "bool",
          "name": "",
          "type": "bool"
        }
      ],
      "stateMutability": "view",
      "type": "function"
    },
    {
      "inputs": [],
      "name": "isOwner",
      "outputs": [
        {
          "internalType": "bool",
          "name": "",
          "type": "bool"
        }
      ],
      "stateMutability": "view",
      "type": "function"
    },
    {
      "inputs": [],
      "name": "name",
      "outputs": [
        {
          "internalType": "string",
          "name": "",
          "type": "string"
        }
      ],
      "stateMutability": "view",
      "type": "function"
    },
    {
      "inputs": [
        {
          "internalType": "uint256",
          "name": "",
          "type": "uint256"
        }
      ],
      "name": "names",
      "outputs": [
        {
          "internalType": "string",
          "name": "",
          "type": "string"
        }
      ],
      "stateMutability": "view",
      "type": "function"
    },
    {
      "inputs": [],
      "name": "owner",
      "outputs": [
        {
          "internalType": "address payable",
          "name": "",
          "type": "address"
        }
      ],
      "stateMutability": "view",
      "type": "function"
    },
    {
      "inputs": [
        {
          "internalType": "uint256",
          "name": "tokenId",
          "type": "uint256"
        }
      ],
      "name": "ownerOf",
      "outputs": [
        {
          "internalType": "address",
          "name": "",
          "type": "address"
        }
      ],
      "stateMutability": "view",
      "type": "function"
    },
    {
      "inputs": [
        {
          "internalType": "string",
          "name": "name",
          "type": "string"
        }
      ],
      "name": "price",
      "outputs": [
        {
          "internalType": "uint256",
          "name": "",
          "type": "uint256"
        }
      ],
      "stateMutability": "pure",
      "type": "function"
    },
    {
      "inputs": [
        {
          "internalType": "string",
          "name": "name",
          "type": "string"
        }
      ],
      "name": "register",
      "outputs": [],
      "stateMutability": "payable",
      "type": "function"
    },
    {
      "inputs": [
        {
          "internalType": "address",
          "name": "from",
          "type": "address"
        },
        {
          "internalType": "address",
          "name": "to",
          "type": "address"
        },
        {
          "internalType": "uint256",
          "name": "tokenId",
          "type": "uint256"
        }
      ],
      "name": "safeTransferFrom",
      "outputs": [],
      "stateMutability": "nonpayable",
      "type": "function"
    },
    {
      "inputs": [
        {
          "internalType": "address",
          "name": "from",
          "type": "address"
        },
        {
          "internalType": "address",
          "name": "to",
          "type": "address"
        },
        {
          "internalType": "uint256",
          "name": "tokenId",
          "type": "uint256"
        },
        {
          "internalType": "bytes",
          "name": "_data",
          "type": "bytes"
        }
      ],
      "name": "safeTransferFrom",
      "outputs": [],
      "stateMutability": "nonpayable",
      "type": "function"
    },
    {
      "inputs": [
        {
          "internalType": "address",
          "name": "operator",
          "type": "address"
        },
        {
          "internalType": "bool",
          "name": "approved",
          "type": "bool"
        }
      ],
      "name": "setApprovalForAll",
      "outputs": [],
      "stateMutability": "nonpayable",
      "type": "function"
    },
    {
      "inputs": [
        {
          "internalType": "string",
          "name": "name",
          "type": "string"
        },
        {
          "internalType": "string",
          "name": "image_url",
          "type": "string"
        }
      ],
      "name": "setImage",
      "outputs": [],
      "stateMutability": "nonpayable",
      "type": "function"
    },
    {
      "inputs": [
        {
          "internalType": "bytes4",
          "name": "interfaceId",
          "type": "bytes4"
        }
      ],
      "name": "supportsInterface",
      "outputs": [
        {
          "internalType": "bool",
          "name": "",
          "type": "bool"
        }
      ],
      "stateMutability": "view",
      "type": "function"
    },
    {
      "inputs": [],
      "name": "symbol",
      "outputs": [
        {
          "internalType": "string",
          "name": "",
          "type": "string"
        }
      ],
      "stateMutability": "view",
      "type": "function"
    },
    {
      "inputs": [],
      "name": "tld",
      "outputs": [
        {
          "internalType": "string",
          "name": "",
          "type": "string"
        }
      ],
      "stateMutability": "view",
      "type": "function"
    },
    {
      "inputs": [
        {
          "internalType": "uint256",
          "name": "tokenId",
          "type": "uint256"
        }
      ],
      "name": "tokenURI",
      "outputs": [
        {
          "internalType": "string",
          "name": "",
          "type": "string"
        }
      ],
      "stateMutability": "view",
      "type": "function"
    },
    {
      "inputs": [
        {
          "internalType": "address",
          "name": "from",
          "type": "address"
        },
        {
          "internalType": "address",
          "name": "to",
          "type": "address"
        },
        {
          "internalType": "uint256",
          "name": "tokenId",
          "type": "uint256"
        }
      ],
      "name": "transferFrom",
      "outputs": [],
      "stateMutability": "nonpayable",
      "type": "function"
    },
    {
      "inputs": [],
      "name": "withdraw",
      "outputs": [],
      "stateMutability": "nonpayable",
      "type": "function"
    }
  ],
  "bytecode": "0x60806040526040518061020001604052806101c181526020016200520d6101c191396008908051906020019062000038929190620002c8565b506040518060400160405280600d81526020017f3c2f746578743e3c2f7376673e000000000000000000000000000000000000008152506009908051906020019062000086929190620002c8565b50604051620053ce380380620053ce8339818101604052810190620000ac919062000515565b6040518060400160405280601681526020017f57686f416d492050726f66696c652053657276696365000000000000000000008152506040518060400160405280600381526020017f5750530000000000000000000000000000000000000000000000000000000000815250816000908051906020019062000130929190620002c8565b50806001908051906020019062000149929190620002c8565b50505033600e60006101000a81548173ffffffffffffffffffffffffffffffffffffffff021916908373ffffffffffffffffffffffffffffffffffffffff16021790555080600a9080519060200190620001a5929190620002c8565b50620001f26040518060400160405280601881526020017f2573206e616d652073657276696365206465706c6f796564000000000000000081525082620001f960201b62001a791760201c565b5062000663565b6200029b828260405160240162000212929190620005c3565b6040516020818303038152906040527f4b5c4277000000000000000000000000000000000000000000000000000000007bffffffffffffffffffffffffffffffffffffffffffffffffffffffff19166020820180517bffffffffffffffffffffffffffffffffffffffffffffffffffffffff83818316178352505050506200029f60201b60201c565b5050565b60008151905060006a636f6e736f6c652e6c6f679050602083016000808483855afa5050505050565b828054620002d6906200062d565b90600052602060002090601f016020900481019282620002fa576000855562000346565b82601f106200031557805160ff191683800117855562000346565b8280016001018555821562000346579182015b828111156200034557825182559160200191906001019062000328565b5b50905062000355919062000359565b5090565b5b80821115620003745760008160009055506001016200035a565b5090565b6000604051905090565b600080fd5b600080fd5b600080fd5b600080fd5b6000601f19601f8301169050919050565b7f4e487b7100000000000000000000000000000000000000000000000000000000600052604160045260246000fd5b620003e18262000396565b810181811067ffffffffffffffff82111715620004035762000402620003a7565b5b80604052505050565b60006200041862000378565b9050620004268282620003d6565b919050565b600067ffffffffffffffff821115620004495762000448620003a7565b5b620004548262000396565b9050602081019050919050565b60005b838110156200048157808201518184015260208101905062000464565b8381111562000491576000848401525b50505050565b6000620004ae620004a8846200042b565b6200040c565b905082815260208101848484011115620004cd57620004cc62000391565b5b620004da84828562000461565b509392505050565b600082601f830112620004fa57620004f96200038c565b5b81516200050c84826020860162000497565b91505092915050565b6000602082840312156200052e576200052d62000382565b5b600082015167ffffffffffffffff8111156200054f576200054e62000387565b5b6200055d84828501620004e2565b91505092915050565b600081519050919050565b600082825260208201905092915050565b60006200058f8262000566565b6200059b818562000571565b9350620005ad81856020860162000461565b620005b88162000396565b840191505092915050565b60006040820190508181036000830152620005df818562000582565b90508181036020830152620005f5818462000582565b90509392505050565b7f4e487b7100000000000000000000000000000000000000000000000000000000600052602260045260246000fd5b600060028204905060018216806200064657607f821691505b602082108114156200065d576200065c620005fe565b5b50919050565b614b9a80620006736000396000f3fe6080604052600436106101815760003560e01c80638f32d59b116100d1578063c87b56dd1161008a578063e985e9c511610064578063e985e9c5146105cc578063f2c298be14610609578063fb825e5f14610625578063fe2c61981461065057610181565b8063c87b56dd14610515578063e12ee76514610552578063e802bf7d1461058f57610181565b80638f32d59b1461040757806395d89b4114610432578063a22cb4651461045d578063b88d4fde14610486578063bf40fac1146104af578063c4e1750b146104ec57610181565b80632d5514321161013e5780634622ab03116101185780634622ab03146103255780636352211e1461036257806370a082311461039f5780638da5cb5b146103dc57610181565b80632d551432146102ba5780633ccfd60b146102e557806342842e0e146102fc57610181565b806301ffc9a71461018657806306fdde03146101c3578063081812fc146101ee578063095ea7b31461022b57806323b872dd14610254578063264492351461027d575b600080fd5b34801561019257600080fd5b506101ad60048036038101906101a89190612f7e565b61068d565b6040516101ba9190612fc6565b60405180910390f35b3480156101cf57600080fd5b506101d861076f565b6040516101e5919061307a565b60405180910390f35b3480156101fa57600080fd5b50610215600480360381019061021091906130d2565b610801565b6040516102229190613140565b60405180910390f35b34801561023757600080fd5b50610252600480360381019061024d9190613187565b610886565b005b34801561026057600080fd5b5061027b600480360381019061027691906131c7565b61099e565b005b34801561028957600080fd5b506102a4600480360381019061029f919061334f565b6109fe565b6040516102b19190613140565b60405180910390f35b3480156102c657600080fd5b506102cf610a47565b6040516102dc919061307a565b60405180910390f35b3480156102f157600080fd5b506102fa610ad5565b005b34801561030857600080fd5b50610323600480360381019061031e91906131c7565b610bc8565b005b34801561033157600080fd5b5061034c600480360381019061034791906130d2565b610be8565b604051610359919061307a565b60405180910390f35b34801561036e57600080fd5b50610389600480360381019061038491906130d2565b610c88565b6040516103969190613140565b60405180910390f35b3480156103ab57600080fd5b506103c660048036038101906103c19190613398565b610d3a565b6040516103d391906133d4565b60405180910390f35b3480156103e857600080fd5b506103f1610df2565b6040516103fe9190613410565b60405180910390f35b34801561041357600080fd5b5061041c610e18565b6040516104299190612fc6565b60405180910390f35b34801561043e57600080fd5b50610447610e70565b604051610454919061307a565b60405180910390f35b34801561046957600080fd5b50610484600480360381019061047f9190613457565b610f02565b005b34801561049257600080fd5b506104ad60048036038101906104a89190613538565b610f18565b005b3480156104bb57600080fd5b506104d660048036038101906104d1919061361b565b610f7a565b6040516104e39190613140565b60405180910390f35b3480156104f857600080fd5b50610513600480360381019061050e9190613668565b610fc5565b005b34801561052157600080fd5b5061053c600480360381019061053791906130d2565b6110a0565b604051610549919061307a565b60405180910390f35b34801561055e57600080fd5b506105796004803603810190610574919061334f565b6111f2565b604051610586919061307a565b60405180910390f35b34801561059b57600080fd5b506105b660048036038101906105b1919061361b565b6112a8565b6040516105c3919061307a565b60405180910390f35b3480156105d857600080fd5b506105f360048036038101906105ee91906136e9565b61135b565b6040516106009190612fc6565b60405180910390f35b610623600480360381019061061e919061361b565b6113ef565b005b34801561063157600080fd5b5061063a61184b565b6040516106479190613835565b60405180910390f35b34801561065c57600080fd5b506106776004803603810190610672919061361b565b6119b7565b60405161068491906133d4565b60405180910390f35b60007f80ac58cd000000000000000000000000000000000000000000000000000000007bffffffffffffffffffffffffffffffffffffffffffffffffffffffff1916827bffffffffffffffffffffffffffffffffffffffffffffffffffffffff1916148061075857507f5b5e139f000000000000000000000000000000000000000000000000000000007bffffffffffffffffffffffffffffffffffffffffffffffffffffffff1916827bffffffffffffffffffffffffffffffffffffffffffffffffffffffff1916145b80610768575061076782611b15565b5b9050919050565b60606000805461077e90613886565b80601f01602080910402602001604051908101604052809291908181526020018280546107aa90613886565b80156107f75780601f106107cc576101008083540402835291602001916107f7565b820191906000526020600020905b8154815290600101906020018083116107da57829003601f168201915b5050505050905090565b600061080c82611b7f565b61084b576040517f08c379a00000000000000000000000000000000000000000000000000000000081526004016108429061392a565b60405180910390fd5b6004600083815260200190815260200160002060009054906101000a900473ffffffffffffffffffffffffffffffffffffffff169050919050565b600061089182610c88565b90508073ffffffffffffffffffffffffffffffffffffffff168373ffffffffffffffffffffffffffffffffffffffff161415610902576040517f08c379a00000000000000000000000000000000000000000000000000000000081526004016108f9906139bc565b60405180910390fd5b8073ffffffffffffffffffffffffffffffffffffffff16610921611beb565b73ffffffffffffffffffffffffffffffffffffffff161480610950575061094f8161094a611beb565b61135b565b5b61098f576040517f08c379a000000000000000000000000000000000000000000000000000000000815260040161098690613a4e565b60405180910390fd5b6109998383611bf3565b505050565b6109af6109a9611beb565b82611cac565b6109ee576040517f08c379a00000000000000000000000000000000000000000000000000000000081526004016109e590613ae0565b60405180910390fd5b6109f9838383611d8a565b505050565b600b818051602081018201805184825260208301602085012081835280955050505050506000915054906101000a900473ffffffffffffffffffffffffffffffffffffffff1681565b600a8054610a5490613886565b80601f0160208091040260200160405190810160405280929190818152602001828054610a8090613886565b8015610acd5780601f10610aa257610100808354040283529160200191610acd565b820191906000526020600020905b815481529060010190602001808311610ab057829003601f168201915b505050505081565b610add610e18565b610b13576040517f82b4290000000000000000000000000000000000000000000000000000000000815260040160405180910390fd5b600047905060003373ffffffffffffffffffffffffffffffffffffffff1682604051610b3e90613b31565b60006040518083038185875af1925050503d8060008114610b7b576040519150601f19603f3d011682016040523d82523d6000602084013e610b80565b606091505b5050905080610bc4576040517f08c379a0000000000000000000000000000000000000000000000000000000008152600401610bbb90613b92565b60405180910390fd5b5050565b610be383838360405180602001604052806000815250610f18565b505050565b600d6020528060005260406000206000915090508054610c0790613886565b80601f0160208091040260200160405190810160405280929190818152602001828054610c3390613886565b8015610c805780601f10610c5557610100808354040283529160200191610c80565b820191906000526020600020905b815481529060010190602001808311610c6357829003601f168201915b505050505081565b6000806002600084815260200190815260200160002060009054906101000a900473ffffffffffffffffffffffffffffffffffffffff169050600073ffffffffffffffffffffffffffffffffffffffff168173ffffffffffffffffffffffffffffffffffffffff161415610d31576040517f08c379a0000000000000000000000000000000000000000000000000000000008152600401610d2890613c24565b60405180910390fd5b80915050919050565b60008073ffffffffffffffffffffffffffffffffffffffff168273ffffffffffffffffffffffffffffffffffffffff161415610dab576040517f08c379a0000000000000000000000000000000000000000000000000000000008152600401610da290613cb6565b60405180910390fd5b600360008373ffffffffffffffffffffffffffffffffffffffff1673ffffffffffffffffffffffffffffffffffffffff168152602001908152602001600020549050919050565b600e60009054906101000a900473ffffffffffffffffffffffffffffffffffffffff1681565b6000600e60009054906101000a900473ffffffffffffffffffffffffffffffffffffffff1673ffffffffffffffffffffffffffffffffffffffff163373ffffffffffffffffffffffffffffffffffffffff1614905090565b606060018054610e7f90613886565b80601f0160208091040260200160405190810160405280929190818152602001828054610eab90613886565b8015610ef85780601f10610ecd57610100808354040283529160200191610ef8565b820191906000526020600020905b815481529060010190602001808311610edb57829003601f168201915b5050505050905090565b610f14610f0d611beb565b8383611ff1565b5050565b610f29610f23611beb565b83611cac565b610f68576040517f08c379a0000000000000000000000000000000000000000000000000000000008152600401610f5f90613ae0565b60405180910390fd5b610f748484848461215e565b50505050565b6000600b8383604051610f8e929190613d06565b908152602001604051809103902060009054906101000a900473ffffffffffffffffffffffffffffffffffffffff16905092915050565b3373ffffffffffffffffffffffffffffffffffffffff16600b8585604051610fee929190613d06565b908152602001604051809103902060009054906101000a900473ffffffffffffffffffffffffffffffffffffffff1673ffffffffffffffffffffffffffffffffffffffff161461106a576040517f82b4290000000000000000000000000000000000000000000000000000000000815260040160405180910390fd5b8181600c868660405161107e929190613d06565b90815260200160405180910390209190611099929190612de9565b5050505050565b60606110ab82611b7f565b6110ea576040517f08c379a00000000000000000000000000000000000000000000000000000000081526004016110e190613d91565b60405180910390fd5b600060066000848152602001908152602001600020805461110a90613886565b80601f016020809104026020016040519081016040528092919081815260200182805461113690613886565b80156111835780601f1061115857610100808354040283529160200191611183565b820191906000526020600020905b81548152906001019060200180831161116657829003601f168201915b5050505050905060006111946121ba565b90506000815114156111aa5781925050506111ed565b6000825111156111df5780826040516020016111c7929190613de2565b604051602081830303815290604052925050506111ed565b6111e8846121d1565b925050505b919050565b600c81805160208101820180518482526020830160208501208183528095505050505050600091509050805461122790613886565b80601f016020809104026020016040519081016040528092919081815260200182805461125390613886565b80156112a05780601f10611275576101008083540402835291602001916112a0565b820191906000526020600020905b81548152906001019060200180831161128357829003601f168201915b505050505081565b6060600c83836040516112bc929190613d06565b908152602001604051809103902080546112d590613886565b80601f016020809104026020016040519081016040528092919081815260200182805461130190613886565b801561134e5780601f106113235761010080835404028352916020019161134e565b820191906000526020600020905b81548152906001019060200180831161133157829003601f168201915b5050505050905092915050565b6000600560008473ffffffffffffffffffffffffffffffffffffffff1673ffffffffffffffffffffffffffffffffffffffff16815260200190815260200160002060008373ffffffffffffffffffffffffffffffffffffffff1673ffffffffffffffffffffffffffffffffffffffff16815260200190815260200160002060009054906101000a900460ff16905092915050565b600073ffffffffffffffffffffffffffffffffffffffff16600b8383604051611419929190613d06565b908152602001604051809103902060009054906101000a900473ffffffffffffffffffffffffffffffffffffffff1673ffffffffffffffffffffffffffffffffffffffff1614611495576040517f3a81d6fc00000000000000000000000000000000000000000000000000000000815260040160405180910390fd5b60006114a183836119b7565b90506114e36040518060400160405280601b81526020017f476f74202573206d617469632c206e656564202573206d6174696300000000008152503483612278565b8034101561151d576040517f356680b700000000000000000000000000000000000000000000000000000000815260040160405180910390fd5b60008383600a60405160200161153593929190613ee6565b60405160208183030381529060405290506000600882600960405160200161155f93929190613f17565b604051602081830303815290604052905060006115bf86868080601f016020809104026020016040519081016040528093929190818152602001838380828437600081840152601f19601f82011690508083019250505050505050612317565b905060006115cc826124cc565b90506000611604856115dd8661262d565b846040516020016115f0939291906140c4565b60405160208183030381529060405261262d565b9050600081604051602001611619919061416d565b604051602081830303815290604052905061164b604051806060016040528060398152602001614a5f603991396127c5565b61168a6040518060400160405280600e81526020017f46696e616c20746f6b656e55524900000000000000000000000000000000000081525082611a79565b6116ab604051806060016040528060398152602001614ac9603991396127c5565b60006116b561285e565b90506117a9604051806060016040528060318152602001614a98603191398b8b8080601f016020809104026020016040519081016040528093929190818152602001838380828437600081840152601f19601f82011690508083019250505050505050600a805461172590613886565b80601f016020809104026020016040519081016040528092919081815260200182805461175190613886565b801561179e5780601f106117735761010080835404028352916020019161179e565b820191906000526020600020905b81548152906001019060200180831161178157829003601f168201915b50505050508461287e565b6117b33382612920565b6117bd818361293e565b8989600d600084815260200190815260200160002091906117df929190612de9565b5033600b8b8b6040516117f3929190613d06565b908152602001604051809103902060006101000a81548173ffffffffffffffffffffffffffffffffffffffff021916908373ffffffffffffffffffffffffffffffffffffffff16021790555050505050505050505050565b606061186e604051806060016040528060238152602001614b42602391396127c5565b600061187a60076129b2565b67ffffffffffffffff81111561189357611892613224565b5b6040519080825280602002602001820160405280156118c657816020015b60608152602001906001900390816118b15790505b5090506000806118d660076129b2565b90505b808210156119ae57600d600083815260200190815260200160002080546118ff90613886565b80601f016020809104026020016040519081016040528092919081815260200182805461192b90613886565b80156119785780601f1061194d57610100808354040283529160200191611978565b820191906000526020600020905b81548152906001019060200180831161195b57829003601f168201915b50505050508383815181106119905761198f61418f565b5b602002602001018190525081806119a6906141ed565b9250506118d9565b82935050505090565b600080611a0784848080601f016020809104026020016040519081016040528093929190818152602001838380828437600081840152601f19601f82011690508083019250505050505050612317565b90506008811115611a515783836040517f7f19f48d000000000000000000000000000000000000000000000000000000008152600401611a48929190614263565b60405180910390fd5b66038d7ea4c68000600282611a669190614287565b611a709190614287565b91505092915050565b611b118282604051602401611a8f9291906142e1565b6040516020818303038152906040527f4b5c4277000000000000000000000000000000000000000000000000000000007bffffffffffffffffffffffffffffffffffffffffffffffffffffffff19166020820180517bffffffffffffffffffffffffffffffffffffffffffffffffffffffff83818316178352505050506129c0565b5050565b60007f01ffc9a7000000000000000000000000000000000000000000000000000000007bffffffffffffffffffffffffffffffffffffffffffffffffffffffff1916827bffffffffffffffffffffffffffffffffffffffffffffffffffffffff1916149050919050565b60008073ffffffffffffffffffffffffffffffffffffffff166002600084815260200190815260200160002060009054906101000a900473ffffffffffffffffffffffffffffffffffffffff1673ffffffffffffffffffffffffffffffffffffffff1614159050919050565b600033905090565b816004600083815260200190815260200160002060006101000a81548173ffffffffffffffffffffffffffffffffffffffff021916908373ffffffffffffffffffffffffffffffffffffffff160217905550808273ffffffffffffffffffffffffffffffffffffffff16611c6683610c88565b73ffffffffffffffffffffffffffffffffffffffff167f8c5be1e5ebec7d5bd14f71427d1e84f3dd0314c0f7b2291e5b200ac8c7c3b92560405160405180910390a45050565b6000611cb782611b7f565b611cf6576040517f08c379a0000000000000000000000000000000000000000000000000000000008152600401611ced9061438a565b60405180910390fd5b6000611d0183610c88565b90508073ffffffffffffffffffffffffffffffffffffffff168473ffffffffffffffffffffffffffffffffffffffff161480611d7057508373ffffffffffffffffffffffffffffffffffffffff16611d5884610801565b73ffffffffffffffffffffffffffffffffffffffff16145b80611d815750611d80818561135b565b5b91505092915050565b8273ffffffffffffffffffffffffffffffffffffffff16611daa82610c88565b73ffffffffffffffffffffffffffffffffffffffff1614611e00576040517f08c379a0000000000000000000000000000000000000000000000000000000008152600401611df79061441c565b60405180910390fd5b600073ffffffffffffffffffffffffffffffffffffffff168273ffffffffffffffffffffffffffffffffffffffff161415611e70576040517f08c379a0000000000000000000000000000000000000000000000000000000008152600401611e67906144ae565b60405180910390fd5b611e7b8383836129e9565b611e86600082611bf3565b6001600360008573ffffffffffffffffffffffffffffffffffffffff1673ffffffffffffffffffffffffffffffffffffffff1681526020019081526020016000206000828254611ed691906144ce565b925050819055506001600360008473ffffffffffffffffffffffffffffffffffffffff1673ffffffffffffffffffffffffffffffffffffffff1681526020019081526020016000206000828254611f2d9190614502565b92505081905550816002600083815260200190815260200160002060006101000a81548173ffffffffffffffffffffffffffffffffffffffff021916908373ffffffffffffffffffffffffffffffffffffffff160217905550808273ffffffffffffffffffffffffffffffffffffffff168473ffffffffffffffffffffffffffffffffffffffff167fddf252ad1be2c89b69c2b068fc378daa952ba7f163c4a11628f55a4df523b3ef60405160405180910390a4611fec8383836129ee565b505050565b8173ffffffffffffffffffffffffffffffffffffffff168373ffffffffffffffffffffffffffffffffffffffff161415612060576040517f08c379a0000000000000000000000000000000000000000000000000000000008152600401612057906145a4565b60405180910390fd5b80600560008573ffffffffffffffffffffffffffffffffffffffff1673ffffffffffffffffffffffffffffffffffffffff16815260200190815260200160002060008473ffffffffffffffffffffffffffffffffffffffff1673ffffffffffffffffffffffffffffffffffffffff16815260200190815260200160002060006101000a81548160ff0219169083151502179055508173ffffffffffffffffffffffffffffffffffffffff168373ffffffffffffffffffffffffffffffffffffffff167f17307eab39ab6107e8899845ad3d59bd9653f200f220920489ca2b5937696c31836040516121519190612fc6565b60405180910390a3505050565b612169848484611d8a565b612175848484846129f3565b6121b4576040517f08c379a00000000000000000000000000000000000000000000000000000000081526004016121ab90614636565b60405180910390fd5b50505050565b606060405180602001604052806000815250905090565b60606121dc82611b7f565b61221b576040517f08c379a0000000000000000000000000000000000000000000000000000000008152600401612212906146c8565b60405180910390fd5b60006122256121ba565b905060008151116122455760405180602001604052806000815250612270565b8061224f846124cc565b604051602001612260929190613de2565b6040516020818303038152906040525b915050919050565b612312838383604051602401612290939291906146e8565b6040516020818303038152906040527f969cdd03000000000000000000000000000000000000000000000000000000007bffffffffffffffffffffffffffffffffffffffffffffffffffffffff19166020820180517bffffffffffffffffffffffffffffffffffffffffffffffffffffffff83818316178352505050506129c0565b505050565b60008060008084519050600092505b808210156124c15760008583815181106123435761234261418f565b5b602001015160f81c60f81b9050608060f81b817effffffffffffffffffffffffffffffffffffffffffffffffffffffffffffff191610156123925760018361238b9190614502565b92506124ad565b60e060f81b817effffffffffffffffffffffffffffffffffffffffffffffffffffffffffffff191610156123d4576002836123cd9190614502565b92506124ac565b60f060f81b817effffffffffffffffffffffffffffffffffffffffffffffffffffffffffffff191610156124165760038361240f9190614502565b92506124ab565b60f8801b817effffffffffffffffffffffffffffffffffffffffffffffffffffffffffffff19161015612457576004836124509190614502565b92506124aa565b60fc60f81b817effffffffffffffffffffffffffffffffffffffffffffffffffffffffffffff19161015612499576005836124929190614502565b92506124a9565b6006836124a69190614502565b92505b5b5b5b5b5082806124b9906141ed565b935050612326565b829350505050919050565b60606000821415612514576040518060400160405280600181526020017f30000000000000000000000000000000000000000000000000000000000000008152509050612628565b600082905060005b6000821461254657808061252f906141ed565b915050600a8261253f9190614755565b915061251c565b60008167ffffffffffffffff81111561256257612561613224565b5b6040519080825280601f01601f1916602001820160405280156125945781602001600182028036833780820191505090505b5090505b60008514612621576001826125ad91906144ce565b9150600a856125bc9190614786565b60306125c89190614502565b60f81b8183815181106125de576125dd61418f565b5b60200101907effffffffffffffffffffffffffffffffffffffffffffffffffffffffffffff1916908160001a905350600a8561261a9190614755565b9450612598565b8093505050505b919050565b6060600082519050600081141561265657604051806020016040528060008152509150506127c0565b600060036002836126679190614502565b6126719190614755565b600461267d9190614287565b9050600060208261268e9190614502565b67ffffffffffffffff8111156126a7576126a6613224565b5b6040519080825280601f01601f1916602001820160405280156126d95781602001600182028036833780820191505090505b5090506000604051806060016040528060408152602001614b02604091399050600181016020830160005b8681101561277d5760038101905062ffffff818a015116603f8160121c168401518060081b905060ff603f83600c1c1686015116810190508060081b905060ff603f8360061c1686015116810190508060081b905060ff603f831686015116810190508060e01b90508084526004840193505050612704565b50600386066001811461279757600281146127a7576127b2565b613d3d60f01b60028303526127b2565b603d60f81b60018303525b508484525050819450505050505b919050565b61285b816040516024016127d9919061307a565b6040516020818303038152906040527f41304fac000000000000000000000000000000000000000000000000000000007bffffffffffffffffffffffffffffffffffffffffffffffffffffffff19166020820180517bffffffffffffffffffffffffffffffffffffffffffffffffffffffff83818316178352505050506129c0565b50565b60008061286b60076129b2565b90506128776007612b7b565b8091505090565b61291a8484848460405160240161289894939291906147b7565b6040516020818303038152906040527f9fd009f5000000000000000000000000000000000000000000000000000000007bffffffffffffffffffffffffffffffffffffffffffffffffffffffff19166020820180517bffffffffffffffffffffffffffffffffffffffffffffffffffffffff83818316178352505050506129c0565b50505050565b61293a828260405180602001604052806000815250612b91565b5050565b61294782611b7f565b612986576040517f08c379a000000000000000000000000000000000000000000000000000000000815260040161297d90614883565b60405180910390fd5b806006600084815260200190815260200160002090805190602001906129ad929190612e6f565b505050565b600081600001549050919050565b60008151905060006a636f6e736f6c652e6c6f679050602083016000808483855afa5050505050565b505050565b505050565b6000612a148473ffffffffffffffffffffffffffffffffffffffff16612bec565b15612b6e578373ffffffffffffffffffffffffffffffffffffffff1663150b7a02612a3d611beb565b8786866040518563ffffffff1660e01b8152600401612a5f94939291906148f8565b6020604051808303816000875af1925050508015612a9b57506040513d601f19601f82011682018060405250810190612a989190614959565b60015b612b1e573d8060008114612acb576040519150601f19603f3d011682016040523d82523d6000602084013e612ad0565b606091505b50600081511415612b16576040517f08c379a0000000000000000000000000000000000000000000000000000000008152600401612b0d90614636565b60405180910390fd5b805181602001fd5b63150b7a0260e01b7bffffffffffffffffffffffffffffffffffffffffffffffffffffffff1916817bffffffffffffffffffffffffffffffffffffffffffffffffffffffff191614915050612b73565b600190505b949350505050565b6001816000016000828254019250508190555050565b612b9b8383612c0f565b612ba860008484846129f3565b612be7576040517f08c379a0000000000000000000000000000000000000000000000000000000008152600401612bde90614636565b60405180910390fd5b505050565b6000808273ffffffffffffffffffffffffffffffffffffffff163b119050919050565b600073ffffffffffffffffffffffffffffffffffffffff168273ffffffffffffffffffffffffffffffffffffffff161415612c7f576040517f08c379a0000000000000000000000000000000000000000000000000000000008152600401612c76906149d2565b60405180910390fd5b612c8881611b7f565b15612cc8576040517f08c379a0000000000000000000000000000000000000000000000000000000008152600401612cbf90614a3e565b60405180910390fd5b612cd4600083836129e9565b6001600360008473ffffffffffffffffffffffffffffffffffffffff1673ffffffffffffffffffffffffffffffffffffffff1681526020019081526020016000206000828254612d249190614502565b92505081905550816002600083815260200190815260200160002060006101000a81548173ffffffffffffffffffffffffffffffffffffffff021916908373ffffffffffffffffffffffffffffffffffffffff160217905550808273ffffffffffffffffffffffffffffffffffffffff16600073ffffffffffffffffffffffffffffffffffffffff167fddf252ad1be2c89b69c2b068fc378daa952ba7f163c4a11628f55a4df523b3ef60405160405180910390a4612de5600083836129ee565b5050565b828054612df590613886565b90600052602060002090601f016020900481019282612e175760008555612e5e565b82601f10612e3057803560ff1916838001178555612e5e565b82800160010185558215612e5e579182015b82811115612e5d578235825591602001919060010190612e42565b5b509050612e6b9190612ef5565b5090565b828054612e7b90613886565b90600052602060002090601f016020900481019282612e9d5760008555612ee4565b82601f10612eb657805160ff1916838001178555612ee4565b82800160010185558215612ee4579182015b82811115612ee3578251825591602001919060010190612ec8565b5b509050612ef19190612ef5565b5090565b5b80821115612f0e576000816000905550600101612ef6565b5090565b6000604051905090565b600080fd5b600080fd5b60007fffffffff0000000000000000000000000000000000000000000000000000000082169050919050565b612f5b81612f26565b8114612f6657600080fd5b50565b600081359050612f7881612f52565b92915050565b600060208284031215612f9457612f93612f1c565b5b6000612fa284828501612f69565b91505092915050565b60008115159050919050565b612fc081612fab565b82525050565b6000602082019050612fdb6000830184612fb7565b92915050565b600081519050919050565b600082825260208201905092915050565b60005b8381101561301b578082015181840152602081019050613000565b8381111561302a576000848401525b50505050565b6000601f19601f8301169050919050565b600061304c82612fe1565b6130568185612fec565b9350613066818560208601612ffd565b61306f81613030565b840191505092915050565b600060208201905081810360008301526130948184613041565b905092915050565b6000819050919050565b6130af8161309c565b81146130ba57600080fd5b50565b6000813590506130cc816130a6565b92915050565b6000602082840312156130e8576130e7612f1c565b5b60006130f6848285016130bd565b91505092915050565b600073ffffffffffffffffffffffffffffffffffffffff82169050919050565b600061312a826130ff565b9050919050565b61313a8161311f565b82525050565b60006020820190506131556000830184613131565b92915050565b6131648161311f565b811461316f57600080fd5b50565b6000813590506131818161315b565b92915050565b6000806040838503121561319e5761319d612f1c565b5b60006131ac85828601613172565b92505060206131bd858286016130bd565b9150509250929050565b6000806000606084860312156131e0576131df612f1c565b5b60006131ee86828701613172565b93505060206131ff86828701613172565b9250506040613210868287016130bd565b9150509250925092565b600080fd5b600080fd5b7f4e487b7100000000000000000000000000000000000000000000000000000000600052604160045260246000fd5b61325c82613030565b810181811067ffffffffffffffff8211171561327b5761327a613224565b5b80604052505050565b600061328e612f12565b905061329a8282613253565b919050565b600067ffffffffffffffff8211156132ba576132b9613224565b5b6132c382613030565b9050602081019050919050565b82818337600083830152505050565b60006132f26132ed8461329f565b613284565b90508281526020810184848401111561330e5761330d61321f565b5b6133198482856132d0565b509392505050565b600082601f8301126133365761333561321a565b5b81356133468482602086016132df565b91505092915050565b60006020828403121561336557613364612f1c565b5b600082013567ffffffffffffffff81111561338357613382612f21565b5b61338f84828501613321565b91505092915050565b6000602082840312156133ae576133ad612f1c565b5b60006133bc84828501613172565b91505092915050565b6133ce8161309c565b82525050565b60006020820190506133e960008301846133c5565b92915050565b60006133fa826130ff565b9050919050565b61340a816133ef565b82525050565b60006020820190506134256000830184613401565b92915050565b61343481612fab565b811461343f57600080fd5b50565b6000813590506134518161342b565b92915050565b6000806040838503121561346e5761346d612f1c565b5b600061347c85828601613172565b925050602061348d85828601613442565b9150509250929050565b600067ffffffffffffffff8211156134b2576134b1613224565b5b6134bb82613030565b9050602081019050919050565b60006134db6134d684613497565b613284565b9050828152602081018484840111156134f7576134f661321f565b5b6135028482856132d0565b509392505050565b600082601f83011261351f5761351e61321a565b5b813561352f8482602086016134c8565b91505092915050565b6000806000806080858703121561355257613551612f1c565b5b600061356087828801613172565b945050602061357187828801613172565b9350506040613582878288016130bd565b925050606085013567ffffffffffffffff8111156135a3576135a2612f21565b5b6135af8782880161350a565b91505092959194509250565b600080fd5b600080fd5b60008083601f8401126135db576135da61321a565b5b8235905067ffffffffffffffff8111156135f8576135f76135bb565b5b602083019150836001820283011115613614576136136135c0565b5b9250929050565b6000806020838503121561363257613631612f1c565b5b600083013567ffffffffffffffff8111156136505761364f612f21565b5b61365c858286016135c5565b92509250509250929050565b6000806000806040858703121561368257613681612f1c565b5b600085013567ffffffffffffffff8111156136a05761369f612f21565b5b6136ac878288016135c5565b9450945050602085013567ffffffffffffffff8111156136cf576136ce612f21565b5b6136db878288016135c5565b925092505092959194509250565b60008060408385031215613700576136ff612f1c565b5b600061370e85828601613172565b925050602061371f85828601613172565b9150509250929050565b600081519050919050565b600082825260208201905092915050565b6000819050602082019050919050565b600082825260208201905092915050565b600061377182612fe1565b61377b8185613755565b935061378b818560208601612ffd565b61379481613030565b840191505092915050565b60006137ab8383613766565b905092915050565b6000602082019050919050565b60006137cb82613729565b6137d58185613734565b9350836020820285016137e785613745565b8060005b858110156138235784840389528151613804858261379f565b945061380f836137b3565b925060208a019950506001810190506137eb565b50829750879550505050505092915050565b6000602082019050818103600083015261384f81846137c0565b905092915050565b7f4e487b7100000000000000000000000000000000000000000000000000000000600052602260045260246000fd5b6000600282049050600182168061389e57607f821691505b602082108114156138b2576138b1613857565b5b50919050565b7f4552433732313a20617070726f76656420717565727920666f72206e6f6e657860008201527f697374656e7420746f6b656e0000000000000000000000000000000000000000602082015250565b6000613914602c83612fec565b915061391f826138b8565b604082019050919050565b6000602082019050818103600083015261394381613907565b9050919050565b7f4552433732313a20617070726f76616c20746f2063757272656e74206f776e6560008201527f7200000000000000000000000000000000000000000000000000000000000000602082015250565b60006139a6602183612fec565b91506139b18261394a565b604082019050919050565b600060208201905081810360008301526139d581613999565b9050919050565b7f4552433732313a20617070726f76652063616c6c6572206973206e6f74206f7760008201527f6e6572206e6f7220617070726f76656420666f7220616c6c0000000000000000602082015250565b6000613a38603883612fec565b9150613a43826139dc565b604082019050919050565b60006020820190508181036000830152613a6781613a2b565b9050919050565b7f4552433732313a207472616e736665722063616c6c6572206973206e6f74206f60008201527f776e6572206e6f7220617070726f766564000000000000000000000000000000602082015250565b6000613aca603183612fec565b9150613ad582613a6e565b604082019050919050565b60006020820190508181036000830152613af981613abd565b9050919050565b600081905092915050565b50565b6000613b1b600083613b00565b9150613b2682613b0b565b600082019050919050565b6000613b3c82613b0e565b9150819050919050565b7f4661696c656420746f207769746864726177204d617469630000000000000000600082015250565b6000613b7c601883612fec565b9150613b8782613b46565b602082019050919050565b60006020820190508181036000830152613bab81613b6f565b9050919050565b7f4552433732313a206f776e657220717565727920666f72206e6f6e657869737460008201527f656e7420746f6b656e0000000000000000000000000000000000000000000000602082015250565b6000613c0e602983612fec565b9150613c1982613bb2565b604082019050919050565b60006020820190508181036000830152613c3d81613c01565b9050919050565b7f4552433732313a2062616c616e636520717565727920666f7220746865207a6560008201527f726f206164647265737300000000000000000000000000000000000000000000602082015250565b6000613ca0602a83612fec565b9150613cab82613c44565b604082019050919050565b60006020820190508181036000830152613ccf81613c93565b9050919050565b600081905092915050565b6000613ced8385613cd6565b9350613cfa8385846132d0565b82840190509392505050565b6000613d13828486613ce1565b91508190509392505050565b7f45524337323155524953746f726167653a2055524920717565727920666f722060008201527f6e6f6e6578697374656e7420746f6b656e000000000000000000000000000000602082015250565b6000613d7b603183612fec565b9150613d8682613d1f565b604082019050919050565b60006020820190508181036000830152613daa81613d6e565b9050919050565b6000613dbc82612fe1565b613dc68185613cd6565b9350613dd6818560208601612ffd565b80840191505092915050565b6000613dee8285613db1565b9150613dfa8284613db1565b91508190509392505050565b7f2e00000000000000000000000000000000000000000000000000000000000000600082015250565b6000613e3c600183613cd6565b9150613e4782613e06565b600182019050919050565b60008190508160005260206000209050919050565b60008154613e7481613886565b613e7e8186613cd6565b94506001821660008114613e995760018114613eaa57613edd565b60ff19831686528186019350613edd565b613eb385613e52565b60005b83811015613ed557815481890152600182019150602081019050613eb6565b838801955050505b50505092915050565b6000613ef3828587613ce1565b9150613efe82613e2f565b9150613f0a8284613e67565b9150819050949350505050565b6000613f238286613e67565b9150613f2f8285613db1565b9150613f3b8284613e67565b9150819050949350505050565b7f7b226e616d65223a202200000000000000000000000000000000000000000000600082015250565b6000613f7e600a83613cd6565b9150613f8982613f48565b600a82019050919050565b7f222c20226465736372697074696f6e223a20224120646f6d61696e206f6e207460008201527f68652077686f616d69206e616d652073657276696365222c2022696d6167652260208201527f3a2022646174613a696d6167652f7376672b786d6c3b6261736536342c000000604082015250565b6000614016605d83613cd6565b915061402182613f94565b605d82019050919050565b7f222c226c656e677468223a220000000000000000000000000000000000000000600082015250565b6000614062600c83613cd6565b915061406d8261402c565b600c82019050919050565b7f227d000000000000000000000000000000000000000000000000000000000000600082015250565b60006140ae600283613cd6565b91506140b982614078565b600282019050919050565b60006140cf82613f71565b91506140db8286613db1565b91506140e682614009565b91506140f28285613db1565b91506140fd82614055565b91506141098284613db1565b9150614114826140a1565b9150819050949350505050565b7f646174613a6170706c69636174696f6e2f6a736f6e3b6261736536342c000000600082015250565b6000614157601d83613cd6565b915061416282614121565b601d82019050919050565b60006141788261414a565b91506141848284613db1565b915081905092915050565b7f4e487b7100000000000000000000000000000000000000000000000000000000600052603260045260246000fd5b7f4e487b7100000000000000000000000000000000000000000000000000000000600052601160045260246000fd5b60006141f88261309c565b91507fffffffffffffffffffffffffffffffffffffffffffffffffffffffffffffffff82141561422b5761422a6141be565b5b600182019050919050565b60006142428385612fec565b935061424f8385846132d0565b61425883613030565b840190509392505050565b6000602082019050818103600083015261427e818486614236565b90509392505050565b60006142928261309c565b915061429d8361309c565b9250817fffffffffffffffffffffffffffffffffffffffffffffffffffffffffffffffff04831182151516156142d6576142d56141be565b5b828202905092915050565b600060408201905081810360008301526142fb8185613041565b9050818103602083015261430f8184613041565b90509392505050565b7f4552433732313a206f70657261746f7220717565727920666f72206e6f6e657860008201527f697374656e7420746f6b656e0000000000000000000000000000000000000000602082015250565b6000614374602c83612fec565b915061437f82614318565b604082019050919050565b600060208201905081810360008301526143a381614367565b9050919050565b7f4552433732313a207472616e736665722066726f6d20696e636f72726563742060008201527f6f776e6572000000000000000000000000000000000000000000000000000000602082015250565b6000614406602583612fec565b9150614411826143aa565b604082019050919050565b60006020820190508181036000830152614435816143f9565b9050919050565b7f4552433732313a207472616e7366657220746f20746865207a65726f2061646460008201527f7265737300000000000000000000000000000000000000000000000000000000602082015250565b6000614498602483612fec565b91506144a38261443c565b604082019050919050565b600060208201905081810360008301526144c78161448b565b9050919050565b60006144d98261309c565b91506144e48361309c565b9250828210156144f7576144f66141be565b5b828203905092915050565b600061450d8261309c565b91506145188361309c565b9250827fffffffffffffffffffffffffffffffffffffffffffffffffffffffffffffffff0382111561454d5761454c6141be565b5b828201905092915050565b7f4552433732313a20617070726f766520746f2063616c6c657200000000000000600082015250565b600061458e601983612fec565b915061459982614558565b602082019050919050565b600060208201905081810360008301526145bd81614581565b9050919050565b7f4552433732313a207472616e7366657220746f206e6f6e20455243373231526560008201527f63656976657220696d706c656d656e7465720000000000000000000000000000602082015250565b6000614620603283612fec565b915061462b826145c4565b604082019050919050565b6000602082019050818103600083015261464f81614613565b9050919050565b7f4552433732314d657461646174613a2055524920717565727920666f72206e6f60008201527f6e6578697374656e7420746f6b656e0000000000000000000000000000000000602082015250565b60006146b2602f83612fec565b91506146bd82614656565b604082019050919050565b600060208201905081810360008301526146e1816146a5565b9050919050565b600060608201905081810360008301526147028186613041565b905061471160208301856133c5565b61471e60408301846133c5565b949350505050565b7f4e487b7100000000000000000000000000000000000000000000000000000000600052601260045260246000fd5b60006147608261309c565b915061476b8361309c565b92508261477b5761477a614726565b5b828204905092915050565b60006147918261309c565b915061479c8361309c565b9250826147ac576147ab614726565b5b828206905092915050565b600060808201905081810360008301526147d18187613041565b905081810360208301526147e58186613041565b905081810360408301526147f98185613041565b905061480860608301846133c5565b95945050505050565b7f45524337323155524953746f726167653a2055524920736574206f66206e6f6e60008201527f6578697374656e7420746f6b656e000000000000000000000000000000000000602082015250565b600061486d602e83612fec565b915061487882614811565b604082019050919050565b6000602082019050818103600083015261489c81614860565b9050919050565b600081519050919050565b600082825260208201905092915050565b60006148ca826148a3565b6148d481856148ae565b93506148e4818560208601612ffd565b6148ed81613030565b840191505092915050565b600060808201905061490d6000830187613131565b61491a6020830186613131565b61492760408301856133c5565b818103606083015261493981846148bf565b905095945050505050565b60008151905061495381612f52565b92915050565b60006020828403121561496f5761496e612f1c565b5b600061497d84828501614944565b91505092915050565b7f4552433732313a206d696e7420746f20746865207a65726f2061646472657373600082015250565b60006149bc602083612fec565b91506149c782614986565b602082019050919050565b600060208201905081810360008301526149eb816149af565b9050919050565b7f4552433732313a20746f6b656e20616c7265616479206d696e74656400000000600082015250565b6000614a28601c83612fec565b9150614a33826149f2565b602082019050919050565b60006020820190508181036000830152614a5781614a1b565b905091905056fe0a2d2d2d2d2d2d2d2d2d2d2d2d2d2d2d2d2d2d2d2d2d2d2d2d2d2d2d2d2d2d2d2d2d2d2d2d2d2d2d2d2d2d2d2d2d2d2d2d2d2d2d2d2d2d2d2d5265676973746572696e672025732e2573206f6e2074686520636f6e7472616374207769746820746f6b656e49442025642d2d2d2d2d2d2d2d2d2d2d2d2d2d2d2d2d2d2d2d2d2d2d2d2d2d2d2d2d2d2d2d2d2d2d2d2d2d2d2d2d2d2d2d2d2d2d2d2d2d2d2d2d2d2d2d0a4142434445464748494a4b4c4d4e4f505152535455565758595a6162636465666768696a6b6c6d6e6f707172737475767778797a303132333435363738392b2f47657474696e6720616c6c206e616d65732066726f6d2074686520636f6e7472616374a26469706673582212204d7faeb23e6c2222e4e9b8808aec6a30037c4c0fbdc8509f2ad0d9a877908dab64736f6c634300080a00333c7376672077696474683d2231323822206865696768743d22313238222076696577426f783d2230203020313238203132382220786d6c6e733d22687474703a2f2f7777772e77332e6f72672f323030302f737667223e3c7061746820643d224d36342032392e3635392032362e3636372035392e3532357634312e3830386832362e3636365638306832312e3333347632312e3333336832362e3636365636322e30393161352e33333820352e3333382030203020302d322d342e3136364c36342032392e3635395a4d36342031366c34312e3939352033332e3539354131352e39392031352e3939203020302031203131322036322e3039317633392e3234324131302e3636332031302e363633203020302031203130312e333333203131324832362e3636374332302e37373920313132203136203130372e323237203136203130312e3333335635392e35323563302d332e32333720312e3437322d362e33303420342e3030352d382e33334c36342031365a222f3e3c7465787420783d223530252220793d22362e35252220646f6d696e616e742d626173656c696e653d226d6964646c652220746578742d616e63686f723d226d6964646c65223e",
  "linkReferences": {},
  "deployedLinkReferences": {}
}